:100000000C9452010C947A010C947A010C947A01AC
:100010000C947A010C947A010C947A010C94D1011D
:100020000C947A010C94C0010C94D5060C9413071F
:100030000C947A010C947A010C947A010C947A0154
:100040000C947A010C947A010C947A010C947A0144
:100050000C94AE010C947A010C947A010C947A0100
:100060000C947A010C947A010C947A010C947A0124
:100070000C947A010C947A010C947A010C947A0114
:100080000C947A010C947A010C947A010C947A0104
:100090000C947A010C947A010C947A010C947A01F4
:1000A0000C947A010C947A010C947A018D048F04DB
:1000B000910493049504970499049B04A304A50454
:1000C000A704A904AB04AD04AF04B104E80AF10A23
:1000D000E40AF70A070B0C0B0A0B120B100B160B9A
:1000E000190B1F0B410BE40A230B2E0BE40A510BD7
:1000F0004B0B1D0BE40AE40AE40AE40AE40AE40AEE
:10010000E40AE40AE40AE40AE40AE40AE40AE40A7F
:10011000E40AE40AE40AE40AE40AE40AE40AE40A6F
:10012000E40AE40AE40AE40AE40AE40AE40AE40A5F
:10013000E40AE40AE40AE40AE40AE40AE40AE40A4F
:10014000E40AE40AE40AE40AE40AE40AE40AE40A3F
:10015000E40AE40AE40AE40AE40AE40AE40AE40A2F
:10016000E40AE40AE40AE40AE40AE40AE40AE40A1F
:10017000E40AE40AE40AE40AE40AE40AE40AE40A0F
:10018000E40AE40AE40AE40AE40AE40AE40AE40AFF
:10019000E40AE40AE40AE40AE40AE40AE40AE40AEF
:1001A000E40AE40AE40AE40AE40AE40AE40AE40ADF
:1001B000E40AE40AE40AE40AE40AE40AE40AE40ACF
:1001C000E40A650B650B3B0B650B3E0B0001000061
:1001D0007D0212000200003A0243000300003602D2
:1001E00004010309041E0216020309040602160391
:1001F000030904F6010E0E03310031003100310015
:1002000031003200000016034100760069004C0006
:1002100069006700680074002000340000001603C5
:100220004A006F00650072006700200050007200F5
:1002300069006D0000000403090409024300020183
:1002400000C0320904000001020201000524001070
:10025000010524010101042402060524060001070A
:1002600005820310004009040100020A0000000793
:10027000050302400000070584024000001201004F
:100280000202000010C0167B0400010102030100FD
:1002900001C112018036018136312E302E373932BC
:1002A0000000570511241FBECFEFDAE0DEBFCDBF3F
:1002B00011E0A0E0B1E0EEEFFEE102C005900D928A
:1002C000A032B107D9F722E0A0E2B1E001C01D924F
:1002D000AD3BB207E1F711E0C2E5D1E004C02197E0
:1002E000FE010E943C0FC135D107C9F70E944305AA
:1002F0000C947D0F0C940000282F33279927220F90
:10030000331F220F331F820F931F892F99270895C0
:10031000282F220F820F220F220F220F820F220F6F
:10032000820F9927089538E02227880F991F221FEE
:100330009617210518F0961B210983953A95A9F780
:100340009927089559E09927221B10F4960F211D33
:100350002795979587955A95C1F708950F930FB7ED
:100360000F930091BA0203950093BA0229F4009109
:10037000BB0203950093BB020F910FBF0F9118951D
:100380000F930FB7AF93BF93A0918400B0918500F6
:100390000F931F936F93EF93FF93EAE9F2E063B13A
:1003A00010C00F930FB7AF93BF93A0918400B0918B
:1003B00085000F931F936F93EF93FF93EAEAF2E0A8
:1003C0006CB10081062319F0A283B3830BC00181B5
:1003D000016001831A2F0281101B14831B2F0381DC
:1003E000100B1583FF91EF916F911F910F91BF91AA
:1003F000AF910FBF0F911895109223011092220117
:1004000082E480937C00EAE7F0E087E8808380E282
:1004100080937B00808180648083089580917A003E
:1004200086FD0DC080917800909179009093230112
:1004300080932201EAE7F0E0808180648083089560
:1004400020912001309121012115310551F081E0E9
:1004500040912201509123014217530718F080E088
:10046000089580E00895FC01138208952FEFFC01A8
:1004700023830895FB012381FC0123830895FC015C
:10048000948199239CF594FF1AC0892F8F7E8483D1
:100490002581222381F02150258388608483DB011C
:1004A00013968C9190E095958795959587950196F3
:1004B0009183808302C0977E94831382089593FD75
:1004C00005C0DB0113968C9183708583DB01139645
:1004D0002C9130E035952795359527952F5F3F4F27
:1004E00031832083906194838FEF83830895FC018F
:1004F000248125FF03C02FEF23830895222314F4C2
:10050000FC0113820895CF93DF93EC018C818F73EC
:1005100040FF11C028813981215031093983288356
:10052000232B41F4DB0111962D913C9112973983D5
:100530002883806880648C8341FF0FC0DB01EC91CD
:10054000E430C8F4F0E0EE0FFF1FE55FFE4F0190CE
:10055000F081E02DCE0109950EC0DB01EC91E23077
:1005600050F4F0E0EE0FFF1FE95FFE4F0190F081C5
:10057000E02DCE0109958C818F7D8C838B81DF915D
:10058000CF910895883008F080E0E82FF0E0EE0F7A
:10059000FF1FEA5DFE4F808191810895282F8830EA
:1005A00080F4673088F4862F90E037E0239F800D39
:1005B000911D1124880F991F880F991F8A5C9E4FE7
:1005C000089580E090E0089580E090E008958830FC
:1005D00008F590E0DC01AA0FBB1FAA0FBB1FAA0FF2
:1005E000BB1FA25EBD4F880F991FFC01EA5DFE4F45
:1005F0000190F081E02D81819281019711969C9369
:100600008E9380E214968C93149713961C921397F2
:1006100015961C920895CF93C0E060E08C2F0E9445
:100620008404CF5FC830C9F7CF910895883008F0AF
:1006300080E090E0FC01E25AFD4F20812617F1F0A6
:10064000FC01E25AFD4F6083FC01EE0FFF1FEA5DE3
:10065000FE4F9C01220F331F220F331F220F331F27
:10066000A901481B590BCA01860F911D880F991FBC
:10067000880F991F8A5C9E4F9183808308958830EC
:1006800008F080E0E82FF0E0EA5EFD4F80810895F9
:10069000883028F4E82FF0E0EA5EFD4F608308958B
:1006A0000F931F93CF93DF93162F883008F080E0CD
:1006B000C82FD0E0812F0E947C01082FFE01E25A52
:1006C000FD4F8081801711F1801778F48F5F0E94B1
:1006D0008801612F70E06850710990E086179707D4
:1006E00094F0C25ADD4F888111C00E948801612FA9
:1006F00070E0685F7F4F90E06817790734F0C25A66
:10070000DD4F888103C0802F01C0802FDF91CF9102
:100710001F910F910895CF93DF93883010F0E0E0A0
:1007200001C0E82FF0E0EA5EFD4FC081C150D8F073
:10073000D82F8C2F0E94BE0E8230A9F08C2F0E94E1
:10074000DD0C882361F00E94200281110AC08C2FE9
:100750000E94EA0C682F8D2F0E94500305C085E08F
:1007600003C086E001C085E0DF91CF910895CF936B
:10077000C0E08C2F0E948B03682F8C2F0E941603E1
:100780008C2F0E94E702CF5FC83099F70E940B03BD
:10079000CF9108958FEF90E0909369028093680263
:1007A000EEE5F2E0A6E1B2E086E692E011921D925B
:1007B000E817F907D9F70E942B0C8FEF90E0909380
:1007C0006702809366020E94B70308957F928F921A
:1007D0009F92AF92BF92CF92DF92EF92FF920F93D0
:1007E0001F93CF93DF93A82E962E0F2EFEE1CF2ED0
:1007F000F2E0DF2EF02D0F2EFEE5EF2EF2E0FF2EC1
:10080000F02D01E010E0C0E0BB24B394D0E02091D3
:1008100068023091690220233123232B09F45AC046
:100820008C2F0E948B03882EF7018081881581F020
:10083000682D8C2F0E9416038C2F0E94E7029920AE
:1008400039F0882D880F8E5F80932501D093240185
:100850007B2CA11001C07D2E472D4260C83010F0C6
:10086000ED2F01C0EC2FF0E0EE0FFF1FEA5DFE4F11
:1008700060817181C6010E948302209166023091DD
:10088000670220233123232B01F1F5E08F16F1F0CD
:100890009920C1F0909125019923A1F0772069F06A
:1008A000809124018F5F893118F48093240105C061
:1008B000D09324019150909325018091250181705E
:1008C000819504C0D093250101C08D2F682F8C2FF6
:1008D0000E948404CF5F000F111F88E0C80ED11C56
:1008E0009FEFE91AF90AC83009F091CFDF91CF9153
:1008F0001F910F91FF90EF90DF90CF90BF90AF903E
:100900009F908F907F90089587706623B1F090E05C
:10091000FC01EA5AFF4F0C943C0F8C9A08958D9A73
:1009200008958E9A08958F9A0895299A0895469A5F
:1009300008952D9A08952E9A089590E0FC01E25AA8
:10094000FF4F0C943C0F8C9808958D9808958E98C5
:1009500008958F98089529980895469808952D9898
:1009600008952E9808950E94370F20916A023091C1
:100970006B022817390731F090936B0280936A025B
:1009800081E0089580E00895209A559A8C98849A81
:100990008D98859A8E98869A8F98879A2998219A09
:1009A00046983E9A2D98259A2E98269A0E949D0C3C
:1009B0000E94FC01289A5D9A78948CE692E00E944D
:1009C00075050E94CA030895CF93C82F0E94B305EE
:1009D000882311F05D9801C05D9A0E94BE050E94B7
:1009E000820E6C2F85E792E00E94A1088C2F0E9456
:1009F0000E028CE692E00E947E05882329F08CE6A8
:100A000092E00E947505189ACF910895FF920F9376
:100A10001F93CF93DF9361E080E00E948404D0E0D5
:100A2000FF24F39400E010E00E94B304C82F0E945A
:100A3000E404CC23E1F0DB3010F4DF5F18C060E0A9
:100A4000802F0E948404FF2021F0073030F40F5FD4
:100A500008C0002321F0015004C0F12C02C0FF2483
:100A6000F39461E0802F0E9484041F5FD0E0103374
:100A7000D8F260E080E00E948404DF91CF911F9162
:100A80000F91FF9008950E94C4040E94370F909325
:100A90006B0280936A020E9406050E94B304C82F6D
:100AA0000E94E40460E08C2F0E94E603F6CF63E727
:100AB00072E085E792E00E94960865E772E083E7BE
:100AC00092E00E949C050E94340F44EF50E0BC016C
:100AD0008CE692E00E946D050895FC0171836083AD
:100AE00082E08683558344830895FC01A081B1810F
:100AF0008D919C919383828316820895FC01868157
:100B00008230A1F0811110C0A081B1818D919C91A2
:100B100022813381821B930B21E04481558184170C
:100B2000950708F420E026838681089580E00895E3
:100B3000862F0E947A06089527E131E0FC01318377
:100B40002083109291021092900270938F02609312
:100B50008E0210929202E1E6F0E080E8808310823B
:100B60000E94FF0508958091920208950E944A060E
:100B700091E0811101C090E0892F0895CF93DF9318
:100B80008091920281110AC00E9418068823A1F167
:100B900081E0809392020E9464062EC080919002B0
:100BA00090919102892B61F00E94B605882341F053
:100BB000C0919002D09191020E941B06FE010995FE
:100BC00080918E0290918F02892BB1F00E94B60520
:100BD000882391F0E0918E02F0918F020190F081D4
:100BE000E02DC081D1810E941B06682F80918E026A
:100BF00090918F02FE010995DF91CF91089581E0D8
:100C00008093D70080EA8093D80082E189BD09B43F
:100C100000FEFDCF80E98093D8001092E000109292
:100C20009602109293028CE08093E20078940895EB
:100C30008091960208952FB7F894809196028111C1
:100C400004C02FBF8FEF9FEF089583E08093E900EA
:100C50008091E80085FD12C082FD04C00BC082FDBA
:100C600004C008C0E8EEF0E09BE69083808185FF39
:100C7000F6CF04C02FBF8FEF9FEF08958091F10052
:100C80009091E80095FD03C09BE69093E8002FBF8C
:100C900090E008959FB7F89480919602882389F098
:100CA00083E08093E9008091F20081110BC02091D4
:100CB000E80022FF07C025FD05C02BE62093E800D1
:100CC00001C080E09FBF089580919602882389F03B
:100CD0002FB7F89483E08093E9008091E80085FFC6
:100CE00007C0E8EEF0E09BE69083808185FDFCCFB5
:100CF0002FBF0895CF93DF9390919602992309F423
:100D00004CC09FB7F89424E02093E900209194020E
:100D1000222349F02091E80025FD03C09FBF8FEFFB
:100D200041C0109294023091E400375E2091E800B7
:100D300025FD24C09FBF9091E400931781F090910E
:100D40009602992361F1A9EEB0E044E0E8EEF0E00C
:100D5000C4EED0E00DC09FBF9881931305C081E021
:100D6000809394028FEF1EC0909196029923C9F050
:100D70009FB7F8944C93208125FFEDCF8093F1002D
:100D80008091E80085FD03C08AE38093E80085E058
:100D9000809395029FBF80E005C08FEF03C08FEF67
:100DA00001C08FEFDF91CF9108951F920F920FB680
:100DB0000F9211248F939F93EF93FF93E1EEF0E056
:100DC0008081108283FF11C01092E90091E090931E
:100DD000EB001092EC0092E19093ED0098E090937C
:100DE000F000109296021092930282FF13C080913D
:100DF0009602882379F080919502882359F08150DA
:100E000080939502811106C084E08093E9008AE313
:100E10008093E800FF91EF919F918F910F900FBE0B
:100E20000F901F9018951F920F920FB60F921124DA
:100E30000F931F932F933F934F935F936F937F93E2
:100E40008F939F93AF93BF93CF93DF93EF93FF93D2
:100E50001092E9008091E80083FF4CC1E1EFF0E0DF
:100E6000608180812081908130E0392B40819081A8
:100E700050E0592B7081C08192EF9093E80086304A
:100E800009F058C004C081E28093EB003AC166E0EB
:100E90008CEC91E0FC01A591B4912A173B0711F06D
:100EA000079623C0FC013296A591B4914A175B07BF
:100EB00011F007961AC0FC01349645915491FC013B
:100EC00036962491872F90E09C2B8F3F910519F047
:100ED00010F08FEF90E0821708F4282FA8EEB0E012
:100EE00070E16EEFC1EFD0E003C0615099F6CBCF57
:100EF0008C91982F9570E1F382FD03C1322F21313F
:100F000008F0372F332309F4F9C0FA01832F9491A5
:100F10009883815031968111FACF8FEF830F90E043
:100F20000196480F591F231B6C932111E1CF3031DB
:100F3000F9F2E7C0853061F48EEF8093E800E8EEC7
:100F4000F0E0808180FFFDCF20682093E300D9C0CE
:100F5000893009F035C06111CDC0209396021092FE
:100F60009302109295028EEF8093E80081E02FE8C3
:100F700032E0C9EED0E0ABEEB0E00CEE10E06DEE8A
:100F800070E08883A9014F5F5F4FF90194919C93B2
:100F9000992361F0FA014491F8014083F9013296F6
:100FA00094912D5F3F4FFB01908301C09A018F5FA9
:100FB000853039F7EAEEF0E08EE180831082A1C03F
:100FC000883081F4603809F095C0E8EEF0E0808167
:100FD00080FFFDCF809196028093F1008EEF809389
:100FE000E8008FC08132B9F4613A09F083C0E8EEBD
:100FF000F0E0808180FFFDCFE0E0F1E027E031E02C
:10100000A1EFB0E081918C93E217F307D9F78EEF4F
:101010008093E80076C08032D1F4613209F06AC072
:10102000E8EEF0E0808182FFFDCFE0E0F1E027E034
:1010300031E0A1EFB0E08C918193E217F307D9F78B
:10104000E8EEF0E08BEF80838EEF80835AC082322F
:1010500071F4613209F04EC020939302E8EEF0E0A3
:10106000808180FFFDCF8EEF8093E8004AC0811120
:101070001AC0E8EEF0E0808180FFFDCF623851F4C5
:10108000E9EEF0E040838091EB0085FB882780F952
:10109000108201C080E0E1EFF0E0808310828EEFEB
:1010A0008093E8002EC0982F9D7F913019F5623013
:1010B00009F5232BF9F44F779FEF940F9430D0F478
:1010C0009EEF9093E8004093E900833021F481E2A1
:1010D0008093EB0016C089E18093EB0081E090E003
:1010E00002C0880F991F4A95E2F7EAEEF0E080838C
:1010F000108207C081E28093EB0003C06C93211142
:10110000F7CEFF91EF91DF91CF91BF91AF919F917A
:101110008F917F916F915F914F913F912F911F918F
:101120000F910F900FBE0F901F901895FC018DE14D
:1011300091E091838083738362831482178A108E77
:101140000895FC01662329F0908D9F3F11F09F5F69
:10115000908F0895CF93C62F862F0E94C2028C2FA6
:101160000E948B038C2F0E943F03CF91089580E053
:101170000E94280F81E00E94280F08950F931F936B
:10118000CF938C01C0E06C2FC8010E94AA08CF5FEA
:10119000C830C9F7CF911F910F910895FC0127899D
:1011A000233021F4678186810E9448030895FC0161
:1011B0002789233021F4678186810E949C0E08953F
:1011C000FC01278130E0322F22278681A901482B9C
:1011D000CA01909321018093200108950F931F93DA
:1011E000CF938C01C62F633011F06B3169F4D801B5
:1011F00012968D919C911397DC01ED91FC910190D9
:10120000F081E02D6BE10995F80182819381DC0189
:10121000ED91FC910190F081E02D6C2F0995CF911B
:101220001F910F9108950F931F93CF938C01DC01B1
:1012300012968D919C911397DC01ED91FC91019098
:10124000F081E02D62E00995F8016581C8010E94F6
:10125000EE0868E0C8010E94EE08C0E08C2F0E94F2
:101260003F03682FC8010E94EE08CF5FC830B1F776
:10127000D80112968D919C911397DC01ED91FC9110
:101280000190F081E02D63E00995CF911F910F91BE
:1012900008951F93CF93DF93EC01162F8A819B81D2
:1012A000DC01ED91FC910190F081E02D62E0099567
:1012B000612FCE010E94EE088A819B81DC01ED91B5
:1012C000FC910190F081E02D63E00995DF91CF91D1
:1012D0001F910895FF920F931F93CF93DF938C017B
:1012E000F62EEA01DC0112968D919C911397DC0198
:1012F000ED91FC910190F081E02D62E009956F2D58
:10130000C8010E94EE089E012F5F3F4FFE016491CD
:10131000662349F0E901C8010E94EE08FE016491CC
:1013200021966111F8CFD80112968D919C91139757
:10133000DC01ED91FC910190F081E02D63E00995D5
:10134000DF91CF911F910F91FF900895CF92DF927F
:10135000EF92FF920F931F93CF93DF937C01C62FE1
:101360006A01122FDC0112968D919C911397DC017A
:10137000ED91FC910190F081E02D62E009956C2FD8
:10138000C7010E94EE08112379F0E6011150012FE8
:1013900010E00F5F1F4F0C0D1D1D6991C7010E94CA
:1013A000EE08C017D107C9F7F70182819381DC01EC
:1013B000ED91FC910190F081E02D63E00995DF91C2
:1013C000CF911F910F91FF90EF90DF90CF900895F4
:1013D000CF93DF93EC0182E08E8780E00E94BE0E07
:1013E0008F87188A81E00E94BE0E898B1A8AAE010F
:1013F000425F5F4F23E065E0CE010E94A609DF91C6
:10140000CF9108959F92AF92BF92CF92DF92EF92C9
:10141000FF920F931F93CF93DF936C017C018FE0BA
:10142000E80EF11C82E0F60186878601005F1F4FFF
:10143000C0E099249A948C2F0E94EA0CD82F8C2F0C
:101440000E94DD0C882339F058018D2F0E947C0109
:10145000F701808303C05801F7019082F2E0EF0E9C
:10146000F11CF501D083CF5F0E5F1F4FC23019F71B
:10147000A601425F5F4F25E064E0C6010E94A60915
:10148000DF91CF911F910F91FF90EF90DF90CF9060
:10149000BF90AF909F900895CF93DF93FC01878911
:1014A000833011F58681883010F4868701C0168656
:1014B0008781873010F4878701C01786EF01678521
:1014C00086850E94CE02FC018081888B8181898B78
:1014D00082818A8B83818B8BAE01425F5F4F26E0D6
:1014E0006D81CE010E94A609DF91CF910895CF931F
:1014F000DF93EC018E81883010F48E8701C01E8648
:101500008F81873010F48F8701C01F866F858E858D
:101510000E94CE02FC01892BC1F0888580838885DA
:10152000888B898581838985898B8A8582838A8551
:101530008A8B8B8583838B858B8B8E850E94E702BC
:101540006F858E850E94CE0204C0188A198A1A8A75
:101550001B8AAE01425F5F4F26E06D81CE010E9483
:10156000A609DF91CF910895FC019091220180910D
:101570002301968787879091200180912101908B8C
:10158000818BAF01425F5F4F24E06581CF010E94F4
:10159000A6090895CF93DF93EC01188EED81EA3010
:1015A00049F48F89882309F444C090E09F5F981321
:1015B000FDCF3FC04E2F50E04038510528F4FA01CE
:1015C000EA59FF4F0C943C0F9F89911176C079C066
:1015D0001E86AC01425F5F4F21E060E00E94A609D9
:1015E00074C049E952E061E00E946A096EC01E863B
:1015F00088E08F8782E0888B87E0898BAE01425F2D
:101600005F4F24E063E0CE010E94A6095EC00E9405
:10161000020A5BC00E94D708CE010E94E80955C0AB
:101620000E94CE08CE010E9413094FC00E944C0AAE
:101630004CC0CE010E94770A48C00E94E008CE014B
:101640000E94B40A42C00E94A90BAE01425F5F4FE4
:1016500021E06D81CE010E94A60937C00E942B0CAB
:101660000E94B703AE01425F5F4F21E06D81CE0162
:101670000E94A6092AC00E94B70827C00E94BE087F
:1016800024C06CE00E94490980E197E2000000005C
:101690000197E1F71AC08F89823019F48E810E9478
:1016A000CC0E0E94EB0E8E87AE01425F5F4F21E0B1
:1016B0006D81CE010E94A60908C080E08F5F89136A
:1016C000FDCF6FEFCE010E944909DF91CF910895C0
:1016D000CF93DF93FC018481813051F018F0823088
:1016E00011F132C0623091F5178A81E084832EC0F7
:1016F0006B3119F482E0848329C0633039F4EF013F
:10170000CF010E94CA0A1C821F8A20C087898930A3
:1017100038F491E0980F978BE80FF11D658316C0A0
:101720001482178A13C08789893058F491E0980F82
:10173000978BDF01A80FB11D15966C9381E0848310
:1017400005C01482178A02C01482178ADF91CF91D4
:1017500008956AE480E090E00E946A0F60E581E00D
:1017600090E00E946A0F68E482E090E00E946A0FB5
:1017700040EE50E063E070E086E391E00E94600F8D
:1017800048E050E063EE70E086E192E00E94600F76
:1017900080E00E94EE0EBC018BEE90E00E94780F7C
:1017A00080E00E94080FBC018DEE90E00E94780F4F
:1017B00081E00E94EE0EBC018FEE90E00E94780F57
:1017C00081E00E94080FBC0181EF90E00E94780F39
:1017D0006091BC0283EF90E00E946A0F609120014B
:1017E0007091210184EF90E00E94780F0895A6E1A6
:1017F000B2E046E351E066E172E097E020E931E0D3
:101800001D92FA01892F10823283218381503496F0
:101810008111F9CF445E5F4F4617570789F760E2A1
:101820007DE30E94FD0E60E87CE780E00E94170FD8
:1018300060E27DE381E00E94FD0E60E87CE781E0EC
:101840000E94170F1092BC021092210110922001E9
:101850000E94A90B0895CF93DF9380E090E00E944F
:10186000520FC82F81E090E00E94520FD82F82E0E3
:1018700090E00E94520FCA3409F05AC0D03509F0E6
:1018800057C0883409F054C040EE50E063E070E087
:1018900086E391E00E94420F48E050E063EE70E082
:1018A00086E192E00E94420F8BEE90E00E945A0F78
:1018B000BC0180E00E94FD0E8DEE90E00E945A0F68
:1018C000BC0180E00E94170F8FEE90E00E945A0F3B
:1018D000BC0181E00E94FD0E81EF90E00E945A0F52
:1018E000BC0181E00E94170F83EF90E00E94520F2D
:1018F0008093BC0284EF90E00E945A0F90932101E4
:101900008093200126E331E066E172E047E00DC0FC
:101910009081943008F01082815034968111F8CF74
:10192000245E3F4F2617370729F0F901842FF0CFA7
:101930000E94F70BDF91CF9108951092800081E013
:10194000809381001092820080936F001092BB02FE
:101950001092BA02109299021092BC021092980250
:1019600010929702EAE9F2E0118240E25DE35783C8
:10197000468320E83CE7318720879FE395871786D9
:10198000138612861486118A578B468B318F208FCF
:10199000958F178E138E128E148E24986E9890E168
:1019A000908320E4208B90936A00E69A2DBB90935D
:1019B0006B00D89A809368000895823048F490E1D3
:1019C000899FF0011124E656FD4F818182700895B0
:1019D00080E00895CF93C82F0E94DD0C882359F032
:1019E000C23040F480E1C89FF0011124E656FD4F5B
:1019F000868501C080E0CF9108957F928F929F925B
:101A0000AF92BF92CF92DF92EF92FF920F931F930C
:101A1000CF93DF93C0E0D0E0FF24F3946894772461
:101A200076F86894EE24E4F88E01FE01E295F295D2
:101A3000F07FFE27E07FFE27E656FD4F818180FF85
:101A40002EC1FE01E295F295F07FFE27E07FFE2792
:101A5000E656FD4F81818E7F8183C480D580C6018B
:101A6000815091408F3F9E4E08F019C1FE01E295D2
:101A7000F295F07FFE27E07FFE27E656FD4F1786A2
:101A8000818182608183828593859A95C816D90663
:101A90007CF0FE01E295F295F07FFE27E07FFE27C5
:101AA000E656FD4F8285938593958C159D0584F4AC
:101AB000F801E295F295F07FFE27E07FFE27E656DB
:101AC000FD4F84858F5F84878485883008F4E7C064
:101AD000F801E295F295F07FFE27E07FFE27E656BB
:101AE000FD4F1486D386C286809199028F2109F416
:101AF0007CC0F801E295F295F07FFE27E07FFE279B
:101B0000E656FD4F86819781C816D90658F4F8012C
:101B1000E295F295F07FFE27E07FFE27E656FD4F27
:101B2000D782C682F801E295F295F07FFE27E07F2A
:101B3000FE27E656FD4F808591858C159D0558F44E
:101B4000F801E295F295F07FFE27E07FFE27E6564A
:101B5000FD4FD186C086C80182959295907F9827C7
:101B6000807F9827FC01E656FD4F5F0180859185B7
:101B7000268137816FEF821B930B0E949301F50141
:101B800085878585803110F4F501E586F801E295B9
:101B9000F295F07FFE27E07FFE27E656FD4F858514
:101BA000813450F0F801E295F295F07FFE27E07F56
:101BB000FE27E656FD4F7586C80182959295907F67
:101BC0009827807F98279C0126563D4F5901F9019F
:101BD0008680978085856FEF90E00E94A201880D36
:101BE000991DF5019187808732C0F801E295F29541
:101BF000F07FFE27E07FFE27E656FD4F8681978126
:101C0000C816D90658F4F801E295F295F07FFE2740
:101C1000E07FFE27E656FD4FC680D780F801E295AB
:101C2000F295F07FFE27E07FFE27E656FD4F808588
:101C300091858C159D0558F4F801E295F295F07F99
:101C4000FE27E07FFE27E656FD4FC084D184C80101
:101C500082959295907F9827807F98279C012656A1
:101C60003D4F5901F9018681978165859601281BB1
:101C7000390BC9010E949301F50186878091BC024E
:101C800090E09801220F331F02C0959587952A9501
:101C9000E2F780FF04C0F501868580958687FF0CFA
:101CA0002196C230D10509F0BFCEDF91CF911F91AF
:101CB0000F91FF90EF90DF90CF90BF90AF909F90EB
:101CC0008F907F9008958091A902833030F0EAE9E7
:101CD000F2E081818D7F818305C0EAE9F2E08785AA
:101CE0008F5F87878091B902833030F4EAE9F2E0B0
:101CF000878D8F5F878F0895EAE9F2E081898D7F74
:101D0000818B08950E94FD0C2091BA023091BB0294
:101D10008091970290919802822793278827892B98
:101D200051F08091BA029091BB02909398028093F7
:101D300097020E94630E0895CF93DF93C82FD62F8A
:101D40000E94DD0C811101C0D2E0C370CC0FD370B2
:101D50000C2E01C0DD0F0A94EAF783E090E002C088
:101D6000880F991FCA95E2F780959091BC0289234C
:101D7000D82BD093BC02DF91CF910895837020912E
:101D8000BC0230E0880FA90102C0559547958A959D
:101D9000E2F7CA01837008958093990280FF0CC016
:101DA000EAE9F2E020E23EE33783268320E83BE7DE
:101DB000318720879FE3958781FF0CC0EAE9F2E035
:101DC00080E29EE3978B868B80E89BE7918F808FE4
:101DD0008FE3858F0895809199020895282F2170AF
:101DE00030E022953295307F3227207F3227F9016B
:101DF000E656FD4F868197810895823040F490E148
:101E0000899FF0011124E656FD4F7783668308957C
:101E1000282F217030E022953295307F3227207FA5
:101E20003227F901E656FD4F80859185089582306D
:101E300070F4282F217030E022953295307F3227C0
:101E4000207F3227F901E656FD4F7187608708959C
:101E5000823038F420E1829FC001112486569D4FC4
:101E600008958AE992E008958AEB92E008958091BE
:101E7000BA029091BB020895EE0FFF1F0590F491F6
:101E8000E02D0994DC01CB01FC01F999FECF06C0DD
:101E9000F2BDE1BDF89A319600B40D924150504028
:101EA000B8F70895F999FECF92BD81BDF89A9927A8
:101EB00080B50895A8E1B0E042E050E00C94440FF2
:101EC000DC01CB0103C02D910E946B0F41505040AB
:101ED000D0F70895262FF999FECF1FBA92BD81BD84
:101EE00020BD0FB6F894FA9AF99A0FBE019608959C
:0E1EF0000E946A0F272F0C946B0FF894FFCFFF
:101EFE0000E1000000000833023A0233023F02778D
:101F0E0002360200000000980500000000680B0079
:00000001FF
