:100000000C94D0000C94F8000C94F8000C94F800B8
:100010000C94F8000C94F8000C94F8000C944F0128
:100020000C94F8000C943E010C9408060C944206C3
:100030000C94F8000C94F8000C94F8000C94F80060
:100040000C94F8000C94F8000C94F8000C94F80050
:100050000C942C010C94F8000C94F8000C94F8000B
:100060000C94F8000C94F8000C94F8000C94F80030
:100070000C94F8000C94F8000C94F8000C94F80020
:100080000C94F8000C94F8000C94F8000C94F80010
:100090000C94F8000C94F8000C94F8000C94F80000
:1000A0000C94F8000C94F8000C94F800EB03ED03AA
:1000B000EF03F103F303F503F7030204040406045A
:1000C00008040A040C040E04000100007901120067
:1000D000020000360143000300003201040103095D
:1000E000041A01160203090402011603030904F2AB
:1000F000000E0E03310031003100310031003200BA
:10010000000016034100760069004C00690067009A
:100110006800740020003400000016034A006F00DD
:1001200065007200670020005000720069006D00D9
:1001300000000403090409024300020100C032095F
:100140000400000102020100052400100105240141
:10015000010104240206052406000107058203109C
:10016000004009040100020A0000000705030240E4
:100170000000070584024000001201000202000096
:1001800010C0167B040001010203010001C112012D
:100190008036018136312E302E3739320000B004DE
:1001A00011241FBECFEFDAE0DEBFCDBF11E0A0E02B
:1001B000B1E0E2E0FCE102C005900D92A032B1078F
:1001C000D9F722E0A0E2B1E001C01D92AD3BB20739
:1001D000E1F710E0C0EDD0E004C02197FE010E94DD
:1001E000BE0DCF3CD107C9F70E949C040C94FF0DB3
:1001F0000C940000282F33279927220F331F220F3A
:10020000331F820F931F892F99270895282F220FBC
:10021000820F220F220F220F820F220F820F9927A7
:10022000089538E02227880F991F221F961721056D
:1002300018F0961B210983953A95A9F799270895F7
:1002400059E09927221B10F4960F211D27959795A9
:1002500087955A95C1F708950F930FB70F930091A3
:10026000BA0203950093BA0229F40091BB020395E8
:100270000093BB020F910FBF0F9118950F930FB70B
:10028000AF93BF93A0918400B09185000F931F930B
:100290006F93EF93FF93EAE9F2E063B110C00F931D
:1002A0000FB7AF93BF93A0918400B09185000F93D7
:1002B0001F936F93EF93FF93EAEAF2E06CB1008132
:1002C000062319F0A283B3830BC00181016001836F
:1002D0001A2F0281101B14831B2F0381100B15830F
:1002E000FF91EF916F911F910F91BF91AF910FBF50
:1002F0000F911895109223011092220182E48093AD
:100300007C00EAE7F0E087E8808380E280937B006E
:10031000808180648083089580917A0086FD0DC07D
:10032000809178009091790090932301809322012D
:1003300080917A00806480937A0008952091200152
:10034000309121012115310541F081E040912201D8
:10035000509123014217530708F080E00895FC01F3
:10036000138208952FEFFC0123830895FB0123815D
:10037000FC0123830895FC01DB01848187FF31C0E8
:1003800084FF19C0982F9F7E94832581222379F0C2
:10039000215025839860948313968C9190E09595D5
:1003A00087959595879501969183808302C0877E76
:1003B00084831382089583FD05C013969C9113973F
:1003C0009370958313962C9130E03595279535954C
:1003D00027952F5F3F4F31832083806184838FEF88
:1003E00083830895FC01848185FF03C08FEF83839D
:1003F000089587FD13820895CF93DF93EC018C81DC
:100400008F7340FF11C02881398121503109398310
:100410002883232B41F4DB0111962D913C911297F7
:1004200039832883806880648C83DB01EC9141FFF1
:1004300008C0E43090F4F0E0EE0FFF1FE55FFE4FE0
:1004400007C0E23050F4F0E0EE0FFF1FE95FFE4F0F
:100450000190F081E02DCE0109958C818F7D8C83F8
:100460008B81DF91CF910895883008F080E0E82FEC
:10047000F0E0EE0FFF1FEA5DFE4F8081918108954D
:10048000883078F4673068F427E0829FC001112437
:10049000860F911D880F991F880F991F8A5C9E4FA8
:1004A000089580E090E00895883000F590E0DC0148
:1004B00023E0AA0FBB1F2A95E1F7A25EBD4F880F6C
:1004C000991FFC01EA5DFE4F0190F081E02D8181D2
:1004D0009281019711969C938E9380E214968C934F
:1004E000149713961C92139715961C920895CF9308
:1004F000C0E060E08C2F0E94DC03CF5FC830C9F7FA
:10050000CF910895883008F080E0282F30E0F9017D
:10051000E25AFD4F80818617B1F06083F901EE0F3A
:10052000FF1FEA5DFE4F47E0429FC001439F900DD1
:100530001124860F911D880F991F880F991F8A5CBF
:100540009E4F918380830895883008F080E0E82FE3
:10055000F0E0EA5EFD4F80810895883028F4E82FAE
:10056000F0E0EA5EFD4F60830895FF920F931F93C2
:10057000CF93DF93062F883008F080E0C82FD0E0BB
:10058000802F0E94FA00F82EC25ADD4F8881F8169B
:10059000C1F010E08F1550F48F5F0E9406010850E3
:1005A000110990E0801791075CF008C00E940601D5
:1005B000085F1F4F90E00817190714F0888101C0E9
:1005C0008F2DDF91CF911F910F91FF900895CF93C1
:1005D000DF93883010F0E0E001C0E82FF0E0EA5E41
:1005E000FD4FC081C150D0F0D82F8C2F0E94420DFA
:1005F0008230A1F08C2F0E94EB0B882379F00E94AF
:100600009E01811109C08C2F0E94F80B682F8D2F3D
:10061000DF91CF910C94B50286E001C085E0DF91B7
:10062000CF910895CF93C0E08C2F0E94E702682FEE
:100630008C2F0E9482028C2F0E945402CF5FC83000
:1006400099F7CF910C9477028FEF90E09093690225
:1006500080936802A6E1B2E0EEE5F2E088E08E0F5A
:1006600011921D928E13FCCF0E94380B8FEF90E0F9
:1006700090936702809366020C9412036F927F92AC
:100680008F929F92AF92BF92CF92DF92EF92FF92A2
:100690000F931F93CF93DF931F92CDB7DEB7982EA2
:1006A000662E96E2A92E91E0B92E2EE1C22E22E00E
:1006B000D22E3EE5E32E32E0F32E01E010E0712C65
:1006C000809168029091690280239123892B09F41B
:1006D00054C0872D0E94E702882EF701808188167A
:1006E00081F0682D872D0E948202872D0E9454027E
:1006F000662039F0882D880F8E5F80932501109237
:10070000240131E0911001C030E0F5016081718178
:10071000432F4260C60139830E94FC01409166026A
:1007200050916702402351233981452B09F1F5E0AF
:100730008F16F9F06620C9F0209125012223A9F037
:10074000332369F0909124019F5F993118F49093BD
:10075000240105C01092240121502093250190917D
:1007600025019170892F819504C01092250101C047
:1007700080E0682F872D0E94DC037394000F111F07
:1007800082E0A80EB11C98E0C90ED11CEFEFEE1A62
:10079000FE0AF8E07F1294CF0F90DF91CF911F9166
:1007A0000F91FF90EF90DF90CF90BF90AF909F9010
:1007B0008F907F906F900895877090E0FC01319743
:1007C0006623B9F0E730F10520F4EA5AFF4F0C94A4
:1007D000BE0D8C9A08958D9A08958E9A08958F9AD9
:1007E0000895299A0895469A08952D9A08952E9A63
:1007F0000895E730F10520F4E35AFF4F0C94BE0D45
:100800008C9808958D9808958E9808958F980895DE
:1008100029980895469808952D9808952E9808953A
:100820000E94B90D20916A0230916B022817390796
:1008300031F090936B0280936A0281E0089580E02A
:100840000895209A559A8C98849A8D98859A8E98B6
:10085000869A8F98879A2998219A46983E9A2D9839
:10086000259A2E98269A0E94AB0B0E947A01289A0C
:100870005D9A78948CE692E00E94CD040C94240357
:10088000CF93C82F0E940905882311F05D9801C0FD
:100890005D9A0E9414050E94FE0C6C2F85E792E081
:1008A0000E949C078C2F0E948C018CE692E00E9493
:1008B000D604882329F08CE692E00E94CD04189A91
:1008C000CF910895FF920F931F93CF93DF9361E031
:1008D00080E00E94DC03D0E001E0C0E010E00E9474
:1008E0001004F82E0E944004FF20D9F0DB3010F4F1
:1008F000DF5F17C060E08C2F0E94DC03002321F033
:10090000C73030F4CF5F07C0CC2321F0C15003C003
:1009100000E001C001E061E08C2F0E94DC031F5F5A
:10092000D0E01033E0F260E080E0DF91CF911F91E2
:100930000F91FF900C94DC030E9421040E94B90DDA
:1009400090936B0280936A020E9462040E941004DA
:10095000C82F0E94400460E08C2F0E943E03F6CF17
:1009600063E772E085E792E00E94910765E772E035
:1009700083E792E00E94F3040E94B60D44EF50E03A
:10098000BC018CE692E00C94C504FC017183608389
:1009900082E08683558344830895FC01A081B18160
:1009A0008D919C919383828316820895FC018681A8
:1009B0008230A1F0811110C0A081B1818D919C91F4
:1009C00022813381821B930B21E04481558184175E
:1009D000950708F420E026838681089580E0089535
:1009E000862F0C94C90527E131E0FC013183208377
:1009F000109291021092900270938F0260938E0277
:100A000010929202E1E6F0E080E8808310820C947C
:100A10005D058091920208950E949C0591E08111EC
:100A200001C090E0892F0895CF93DF9380919202C7
:100A300081110BC00E9476058823B9F181E0809373
:100A40009202DF91CF910C94B60580919002909123
:100A50009102892B61F00E940C05882341F0C0911E
:100A60009002D09191020E947905FE010995809132
:100A70008E0290918F02892BC1F00E940C05882371
:100A8000A1F0E0918E02F0918F020190F081E02DB3
:100A9000C081D1810E947905682F80918E0290914A
:100AA0008F02FE01DF91CF910994DF91CF910895DC
:100AB0008091E80080FFFCCF089581E08093D7000B
:100AC00080EA8093D80082E189BD09B400FEFDCFA1
:100AD00080E98093D8001092E00010929602109264
:100AE00093028CE08093E2007894089580919602BE
:100AF00008959FB7F89480919602882369F083E067
:100B00008093E9002BE68091E80085FD09C082FF13
:100B100003C02093E800F7CF9FBF8FEF9FEF0895AA
:100B20008091F1002091E80025FD03C02BE6209381
:100B3000E8009FBF90E008952FB7F8948091960247
:100B4000811102C080E010C083E08093E9008091B1
:100B5000F200811109C09091E80092FFF3CF95FD5A
:100B6000F1CF9BE69093E8002FBF08958091960205
:100B7000882371F08FB7F89493E09093E9002BE607
:100B80009091E80095FF03C02093E800F9CF8FBF54
:100B9000089590919602992371F09FB7F89424E0FC
:100BA0002093E90020919402222349F02091E8004B
:100BB00025FD03C09FBF8FEF0895109294022091EE
:100BC000E400275E34E04091E80045FD12C09FBF7D
:100BD0009091E400921304C081E080939402EBCFE3
:100BE00090919602992339F39FB7F8943093E900D6
:100BF000EACF8093F1008091E80085FD03C08AE38D
:100C00008093E80085E0809395029FBF80E008957F
:100C10001F920F920FB60F9211248F939F93809182
:100C2000E1001092E10083FF11C01092E90091E011
:100C30009093EB001092EC0092E19093ED0098E01D
:100C40009093F000109296021092930282FF13C0CC
:100C500080919602882379F080919502882359F03B
:100C6000815080939502811106C084E08093E90051
:100C70008AE38093E8009F918F910F900FBE0F90B1
:100C80001F9018951F920F920FB60F921124EF929A
:100C9000FF920F931F932F933F934F935F936F9305
:100CA0007F938F939F93AF93BF93EF93FF93CF93D4
:100CB000DF931F92CDB7DEB71092E9008091E80074
:100CC00083FF14C19091F1008091F1000091F10037
:100CD0002091F10010E0122B3091F1002091F100F1
:100CE000E32EF12CF22A2091F1006091F10032EF15
:100CF0003093E800863009F046C036E088EC90E09A
:100D0000FC01459154914017510739F4FC0132968A
:100D1000459154914E155F0521F00796315081F7AA
:100D2000E5C0FC01349645915491FC0136968491BE
:100D300030E0362B2F3F310519F010F02FEF30E067
:100D4000281708F4822F3EEF9091E800292F257094
:100D5000D9F392FDCEC0982F813108F090E1FA01CD
:100D6000292F222331F064916093F10021503196B4
:100D7000F8CF490F511D891B3093E8008111E4CF52
:100D8000903111F3B6C0853049F48EEF8093E800BE
:100D90000E94580500680093E300ABC0893059F504
:100DA0009111A4C0009396021092930210929502A2
:100DB0008EEF8093E80041E08BE891E04093E900FA
:100DC0009C012F5F3F4FFC0154915093EB00552342
:100DD00059F0F90124912093EC009C012D5F3F4FC5
:100DE000319684918093ED004F5F453011F0C90139
:100DF000E5CF8EE176C0883051F4903809F076C0A6
:100E00000E945805809196028093F10048C081327B
:100E100079F4913A09F06AC00E945805E0E0F1E0E7
:100E200087E08E0F91919093F1008E13FBCF37C026
:100E30008032A1F4913209F059C08091E80082FF1C
:100E4000FCCFE0E0F1E087E08E0F9091F10091930C
:100E50008E13FBCF8BEF8093E80021C0823241F4E8
:100E6000913209F043C0009393020E94580517C0C5
:100E7000811119C099830E9458059981923851F4C3
:100E8000E092E9008091EB0085FB882780F91092C1
:100E9000E90001C080E08093F1001092F1008EEF34
:100EA0008093E80026C0282F2D7F2130F9F492305E
:100EB000E9F4012BD9F42E2D2F779FEF920F943068
:100EC000A8F49EEF9093E8002093E900833071F03E
:100ED00089E18093EB0081E090E001C0880F2A95C2
:100EE000EAF78093EA001092EA0003C081E280935F
:100EF000EB000F90DF91CF91FF91EF91BF91AF91F8
:100F00009F918F917F916F915F914F913F912F9121
:100F10001F910F91FF90EF900F900FBE0F901F90B9
:100F20001895FC018DE191E0918380837383628346
:100F30001482178A108E0895FC01662329F0908D83
:100F40009F3F11F09F5F908F0895CF93C62F862FFC
:100F50000E9434028C2F0E94E7028C2FCF910C94B8
:100F6000A40280E00E94AA0D81E00C94AA0D0F93C8
:100F70001F93CF938C01C0E06C2FC8010E94A5077E
:100F8000CF5FC830C9F7CF911F910F910895FC0131
:100F90008789833021F4678186810C94AD0208959E
:100FA000FC018789833021F4678186810C94180DB8
:100FB0000895FC01278130E0322F22278681A90184
:100FC000482BCA01909321018093200108950F932B
:100FD0001F93CF938C01C62F633011F06B3169F4EE
:100FE000D80112968D919C911397DC01ED91FC91A3
:100FF0000190F081E02D6BE10995F80182819381E8
:10100000DC01ED91FC910190F081E02D6C2FCF91EE
:101010001F910F9109941F93CF93DF93EC018A8165
:101020009B81DC01ED91FC910190F081E02D62E06B
:1010300009956D81CE010E94E70768E0CE010E940C
:10104000E70710E0812F0E94A402682FCE010E94C2
:10105000E7071F5F1830B1F78A819B81DC01ED91B2
:10106000FC910190F081E02D63E0DF91CF911F9121
:1010700009941F93CF93DF93EC01162F8A819B81F4
:10108000DC01ED91FC910190F081E02D62E0099589
:10109000612FCE010E94E7078A819B81DC01ED91DF
:1010A000FC910190F081E02D63E0DF91CF911F91E1
:1010B0000994EF92FF920F931F93CF93DF9300D089
:1010C000CDB7DEB78C01F62EDC0112968D919C9186
:1010D0001397DC01ED91FC910190F081E02D62E02D
:1010E00049835A8309956F2DC8010E94E7074981FA
:1010F000E42F5A81F52F64917F01BFEFEB1AFB0AB1
:10110000662329F0C8010E94E707F701F4CFF80130
:1011100082819381DC01ED91FC910190F081E02DC1
:1011200063E00F900F90DF91CF911F910F91FF908F
:10113000EF900994CF92DF92FF920F931F93CF937A
:10114000DF9300D0CDB7DEB76C01162FF22EDC0195
:1011500012968D919C911397DC01ED91FC91019079
:10116000F081E02D62E049835A830995612FC60121
:101170000E94E7074981042F5A81152FFF2041F073
:10118000FA94F80161918F01C6010E94E707F6CF3A
:10119000D60112968D919C911397DC01ED91FC91F3
:1011A0000190F081E02D63E00F900F90DF91CF91DF
:1011B0001F910F91FF90DF90CF900994CF93DF9311
:1011C000EC0182E08E8780E00E94420D8F87188AB2
:1011D00081E00E94420D898B1A8AAE01425F5F4F07
:1011E00023E065E0CE01DF91CF910C949A08BF9285
:1011F000CF92DF92EF92FF920F931F93CF93DF93E3
:101200008C01EC012F9682E0F8018687F12CBB243B
:10121000BA948F2D0E94F80BE82E8F2D0E94EB0BB5
:101220009E012F5F3F4F6901882329F08E2D0E9478
:10123000FA00888301C0B8822296F601E082F1E0CC
:10124000FF1619F0FF24F394E4CFA801425F5F4F2B
:1012500025E064E0C801DF91CF911F910F91FF90CD
:10126000EF90DF90CF90BF900C949A08CF93DF93CC
:10127000EC018F89833019F58E81883010F48E87C8
:1012800001C01E868F81873010F48F8701C01F86B2
:101290006F858E850E944002FC018081888B818150
:1012A000898B82818A8B83818B8BAE01425F5F4FFA
:1012B00026E06D81CE01DF91CF910C949A08DF91E9
:1012C000CF910895CF93DF93EC018E81883010F495
:1012D0008E8701C01E868F81873010F48F8701C0F2
:1012E0001F866F858E850E944002FC01892BC1F00C
:1012F000888580838885888B898581838985898B8A
:101300008A8582838A858A8B8B8583838B858B8B69
:101310008E850E9454026F858E850E94400204C013
:10132000188A198A1A8A1B8AAE01425F5F4F26E02B
:101330006D81CE01DF91CF910C949A08FC019091C0
:1013400022018091230196878787909120018091C7
:101350002101908B818BAF01425F5F4F24E065815B
:10136000CF010C949A08CF93DF93EC01188E9D81E6
:101370009A3009F487C09C3009F49BC030F5953051
:1013800009F46EC080F4913009F44EC008F445C0F1
:10139000933009F451C0943009F0A5C0CE01DF911B
:1013A000CF910C94F708983009F45FC038F4963068
:1013B00009F453C0973009F45BC095C0993009F423
:1013C0005CC09B3009F466C08EC0933109F45FC0E5
:1013D00088F49F3009F463C030F49E3009F083C074
:1013E0000E94B40A7AC0913109F474C0923109F4B0
:1013F0006BC079C09D3709F457C020F49B3708F0C3
:1014000078C071C09E3709F474C09F3709F06BC073
:10141000CE01DF91CF910C94B7071E86AE01425FDB
:101420005F4F21E060E014C045E951E061E0CE018A
:10143000DF91CF910C9459081E8688E08F8782E057
:10144000888B87E0898BAE01425F5F4F24E063E0C9
:10145000CE01DF91CF910C949A08CE010E94D00763
:10146000CE01DF91CF910C94DE08CE010E94C70718
:10147000CE01DF91CF910C940B08CE01DF91CF917B
:101480000C943609CE01DF91CF910C946209CE0104
:101490000E94D907CE01DF91CF910C949E090E9442
:1014A000380B0E94120319C0CE01DF91CF910C942A
:1014B000B1076CE0CE010E94390880E197E200009C
:1014C00000000197E1F715C08F89823019F48E81F1
:1014D0000E94500D0E94750D8E87AE01425F5F4FD6
:1014E00021E06D81B5CF6FEFCE01DF91CF910C94EC
:1014F0003908DF91CF910895CF93DF93FC01848168
:10150000813041F018F08230E1F029C0623049F5B5
:10151000178A22C06B3111F482E01FC0633039F4A6
:10152000EF01CF010E94B3091C821F8A1AC087896C
:101530008930A8F491E0980F978BE80FF11D65832F
:1015400010C08789893058F491E0980F978BDF019C
:10155000A80FB11D15966C9381E0848302C014829C
:10156000178ADF91CF9108956AE480E090E00E94AD
:10157000EC0D60E581E090E00E94EC0D68E482E013
:1015800090E00E94EC0D40EE50E063E070E086E3F6
:1015900091E00E94E20D48E050E063EE70E086E1E9
:1015A00092E00E94E20D80E00E94780DBC018BEE7B
:1015B00090E00E94FA0D80E00E94910DBC018DEE3A
:1015C00090E00E94FA0D81E00E94780DBC018FEE40
:1015D00090E00E94FA0D81E00E94910DBC0181EF24
:1015E00090E00E94FA0D6091BC0283EF90E00E94AF
:1015F000EC0D609120017091210184EF90E00C943A
:10160000FA0DE6E1F2E086E391E040E951E0119263
:1016100020E030E0DC01A20FB31F1C9212965C9315
:101620004E9311972C5F3F4F2C31310599F74C9613
:1016300022E08631920759F760E27DE380E00E9464
:10164000860D60E87CE780E00E949F0D60E27DE30C
:1016500081E00E94860D60E87CE781E00E949F0D9A
:101660001092BC0210922101109220010C94B40A35
:10167000CF93DF9380E090E00E94D40DD82F81E0DB
:1016800090E00E94D40DC82F82E090E00E94D40D1B
:10169000DA3409F05CC0C03509F059C0883409F06B
:1016A00056C040EE50E063E070E086E391E00E94B7
:1016B000C40D48E050E063EE70E086E192E00E94E5
:1016C000C40D8BEE90E00E94DC0DBC0180E00E9416
:1016D000860D8DEE90E00E94DC0DBC0180E00E9442
:1016E0009F0D8FEE90E00E94DC0DBC0181E00E9416
:1016F000860D81EF90E00E94DC0DBC0181E00E942C
:101700009F0D83EF90E00E94D40D8093BC0284EF84
:1017100090E00E94DC0D909321018093200126E34C
:1017200031E048E080E090E0F901E80FF91F5081D6
:10173000543008F0108204968C319105A9F741507D
:10174000245E3F4F4111EECFDF91CF910895DF919D
:10175000CF910C94010B1092800081E08093810066
:101760001092820080936F001092BB021092BA0216
:10177000109299021092BC02109298021092970255
:10178000EAE9F2E0118240E25DE35783468320E814
:101790003CE7318720879FE395871786138612865B
:1017A0001486118A578B468B318F208F958F178E19
:1017B000138E128E148E24986E9890E1908320E4FC
:1017C000208B90936A00E69A2DBB90936B00D89A79
:1017D000809368000895823048F490E1899FF00179
:1017E0001124E656FD4F81818270089580E00895AE
:1017F000CF93C82F0E94EB0B882359F0C23040F4DE
:1018000080E1C89FF0011124E656FD4F868501C096
:1018100080E0CF9108956F927F928F929F92BF92B6
:10182000CF92DF92EF92FF920F931F93CF93DF93AC
:10183000E12CF12CDD24D39470E4C72EE0E1BE2E20
:10184000E70154E0CC0FDD1F5A95E1F7FE01E656A3
:10185000FD4F818180FF93C081818E7F81830481D0
:101860001581C801815091408F3F9E4E08F087C07E
:101870001786818182608183828593859A95081776
:1018800019070CF484C0828593859395801791077E
:101890000CF47DC0FE01E656FD4F148613870287C7
:1018A000809199028D21F1F186819781081719079E
:1018B00010F417830683FE01E656FD4F808591855F
:1018C0008017910710F411870087CE0186569D4F2F
:1018D0004C01FC0180859185268137816FEF821B49
:1018E000930B0E941101F40185878585803108F4EE
:1018F000B586FE01E656FD4F8585813408F0C58624
:101900009E0126563D4F4901F90166807780858505
:101910006FEF90E00E942001860D971DF4019187E2
:10192000808711C0868197810817190710F40681F6
:101930001781FE01E656FD4F80859185801791073E
:1019400010F400851185C656DD4F8E819F816D850F
:101950009801281B390BC9010E9411018E878091C3
:10196000BC0290E09701220F331F02C09595879526
:101970002A95E2F780FF03C08E8580958E87DD0C67
:10198000EA94EF2871F0EE24E394F12C59CFFE0194
:10199000E656FD4F84858F5F84878485883078F391
:1019A00079CFDF91CF911F910F91FF90EF90DF9052
:1019B000CF90BF909F908F907F906F90089580916F
:1019C000A902833030F080919B028D7F80939B022F
:1019D00005C08091A9028F5F8093A9028091B9020E
:1019E000833030F48091B9028F5F8093B9020895FB
:1019F0008091AB028D7F8093AB0208950E940B0C07
:101A00002091BA023091BB02809197029091980286
:101A1000822793278827892B51F08091BA029091D1
:101A2000BB0290939802809397020C94DF0C089568
:101A30001F93CF93DF931F92CDB7DEB7182F698323
:101A40000E94EB0B6981811101C062E0812F8370DC
:101A5000282F220F6370022E01C0660F0A94EAF746
:101A600083E090E001C0880F2A95EAF78095909175
:101A7000BC028923682B6093BC020F90DF91CF9149
:101A80001F91089583702091BC0230E0880FA90156
:101A900002C0559547958A95E2F7CA01837008956B
:101AA0008093990280FF0FC020E23EE33093A102B1
:101AB0002093A00220E83BE73093A3022093A202E8
:101AC0009FE39093A70281FF0FC080E29EE3909373
:101AD000B1028093B00280E89BE79093B3028093B9
:101AE000B2028FE38093B70208958091990208951E
:101AF000282F217030E084E0220F331F8A95E1F710
:101B0000F901E656FD4F868197810895823040F4B1
:101B100090E1899FF0011124E656FD4F778366839B
:101B20000895282F217030E084E0220F331F8A951A
:101B3000E1F7F901E656FD4F8085918508958230E1
:101B400040F490E1899FF0011124E656FD4F718722
:101B500060870895823038F420E1829FC00111240B
:101B600086569D4F08958AE992E008958AEB92E0A7
:101B700008958091BA029091BB020895EE0FFF1F65
:101B80000590F491E02D0994DC01CB01FC01F99959
:101B9000FECF06C0F2BDE1BDF89A319600B40D92B9
:101BA00041505040B8F70895F999FECF92BD81BDDC
:101BB000F89A992780B50895A8E1B0E042E050E096
:101BC0000C94C60DDC01CB0103C02D910E94ED0DDC
:101BD00041505040D0F70895262FF999FECF1FBAF3
:101BE00092BD81BD20BD0FB6F894FA9AF99A0FBE46
:101BF000019608950E94EC0D272F0C94ED0DF8949A
:021C0000FFCF14
:101C020000E10000000008AF01B601AF01BB01F224
:101C120001B20100000000F004000000007C0A0094
:00000001FF
